:020000040800F2
:10000000780600208101000897090008950900087A
:1000100000000000000000000000000000000000E0
:100020000000000000000000000000009B09000824
:100030000000000000000000990900089D09000868
:100040009301000893010008930100089301000840
:100050009301000893010008930100089301000830
:100060009301000893010008930100089301000820
:100070009301000893010008930100089301000810
:100080009301000893010008930100089301000800
:1000900093010008930100089301000893010008F0
:1000A00093010008930100089301000893010008E0
:1000B00093010008A90900089301000893010008B2
:1000C00000F002F800F04CF812A030C808382418EC
:1000D0002D18AC4201D100F043F80FCCA246AB463C
:1000E0000CA730CF2D1B083F3F197C427F1E544484
:1000F0002D090426F441641EAC4201D300F030F80F
:100100000126334200D0FB1A3343984754465D46DC
:10011000DFE70000282E0000482E0000103A02D32E
:1001200078C878C1FAD8520701D330C830C101D598
:1001300004680C6070470000704700000023002432
:1001400000250026103A01D378C1FBD8520700D30E
:1001500030C100D50B6070471FB51FBD10B510BD75
:1001600000F04DF81146FFF7F7FF00F02BFC00F010
:1001700065F803B4FFF7F2FF03BC00F06BF8000072
:100180000748804707480047FEE7FEE7FEE7FEE72F
:10019000FEE7FEE704480549054A064B70470000A4
:1001A000A5090008C100000878000020780600209A
:1001B000780200207802002001E004C0091F042911
:1001C000FBD28B0701D50280801CC90700D00270CA
:1001D000704700290BD0C30702D00270401C491E93
:1001E000022904D3830702D50280801C891EE3E71D
:1001F0000022EEE70022DFE7704770477047754640
:1002000000F024F8AE46050069465346C008C00019
:10021000854618B020B5FFF7BDFF60BCB646002686
:100220000027C0C5C0C5C0C5C0C5C0C5C0C5C0C504
:10023000C0C5403D490849008D46704710B5044689
:10024000C046C0462046FFF794FF10BD00487047E7
:100250001000002001491820ABBEFEE72600020076
:1002600070470000054800687047C0461A4800788B
:1002700002490A68101808607047C04674000020E0
:1002800080B58548016810220A430260032000F00F
:1002900005F800F023F8002080BDC04670B5044684
:1002A0007D20C0000C4E317802F0C3FC014682482C
:1002B000006802F0BEFC00F055FB0125032C08D8B5
:1002C000002806D10025E84321462A4600F01CF804
:1002D0007460284670BDC0460000002082B0094806
:1002E00001680122114301600168114001910199E7
:1002F000110742680A434260406808400090009835
:1003000002B0704718100240002805D403220346AB
:1003100093430A4A9A1803E00C220240064BD21873
:100320008007C00E8901C9B28140FF238340106855
:10033000984308431060704714ED00E000E400E0CB
:10034000F0B581B0002846D00446534A1368012016
:1003500003408B4208D213680126B3430B4313605A
:10036000126832408A4237D1009121688A074B4B8C
:1003700010D54A0706D5072212021B681343474AC5
:100380001360464B1A68F0239A43A3681343434A09
:100390001360424BC90722D13F490868012630400B
:1003A000009A904205D90868B04308600868C00701
:1003B00012D12078400706D5072000021968814332
:1003C000E068084318601A681007810F3548022951
:1003D00012D2044650E00126304601B0F0BD6168FB
:1003E00003290DD01A1F02290FD0012912D112683A
:1003F00092030646F0D511E0032926D12A4C3BE0B2
:100400001A6B92030646E7D508E012689201064689
:10041000E2D503E0126892070646DDD51868032688
:10042000B04308431860FFF71DFF07461C4D1B4BE8
:1004300018680C210140606880008142ACD0FFF751
:1004400011FFC01BA842F2D9C6E70321CB03134911
:10045000896A0F240C401549095D94021A40240F43
:10046000134D2C5D9A4202D033049A4200E00E48AC
:1004700002F0DFFB4443094B18680006000F0D49EA
:10048000085CC4400C4804600320FFF707FF002607
:10049000304601B0F0BDC0460020024004100240CA
:1004A0008813000000127A00006CDC02482E00085D
:1004B000382E0008282E000808000020F0B587B06C
:1004C00004460120002C00D145E204902078C007AA
:1004D000F94E05940CD071680C200140042900D01D
:1004E00090E03068800303D56068002800D120E1E7
:1004F0002078800721D570680007800F0ED07068C3
:100500000C210140082900D09DE00320C003716840
:1005100001400120C003814200D094E03068800790
:10052000059C03D5E068012800D002E13068F8217D
:1005300088432169C90001433160059C2078000788
:1005400024D42078400737D42078C00600D4D3E0E4
:1005500005984069411D00D1C2E0012800D030E17A
:10056000706B042101437163706B0121014371635E
:10057000FFF778FE0546706B800700D5B4E0FFF703
:1005800071FE411B03200229F5D9E4E1706AE1699B
:10059000002900D181E0012108437062FFF762FE6B
:1005A0000546706A8007CCD4FFF75CFE401B02282A
:1005B000F7D9032007B0F0BD012003900107F069CF
:1005C0000840029006D1F0690843F061F0690840E4
:1005D000069006980191E14F3868C0054AD4039807
:1005E0000402386820433860FFF73CFE054638684F
:1005F00020423FD1FFF736FE401B6428F7D9032085
:1006000007B0F0BD71680140082908D10320C0037C
:100610007168014001200004814200D161E76168F6
:1006200001204704002900D117E1052900D12BE161
:10063000012900D12CE1010432688A43326081042F
:100640003068884327E13068059CE168002936D08E
:10065000012108433060FFF705FE0546306880073A
:1006600000D563E7FFF7FEFD401B0228F6D9032003
:1006700007B0F0BD05988068002800D1B6E00528D5
:1006800000D1C9E0012800D1CAE0306A039988434B
:100690003062306A04218843C5E0012188437062DA
:1006A000FFF7E0FD0546706A800700D449E7FFF7D1
:1006B000D9FD401B0228F6D9032007B0F0BD012167
:1006C00088433060FFF7CEFD05463068800700D4D0
:1006D00033E7FFF7C7FD411B03200229F5D93AE1B3
:1006E000706B042188437063706BF821884305990F
:1006F0008969C900014371630598007880060BD5AC
:1007000071680C2001400C2939D1706B800303D52E
:100710000598006A01280CD10598446A002C00D184
:10072000E1E070680C210140082905D1012C00D0BE
:10073000C4E0049807B0F0BD0120020631680492BD
:10074000914331604706FFF78DFD0546022C0BD122
:10075000049C3068384200D1DEE0FFF783FD411B86
:1007600003200229F5D9F6E03068384200D1BAE01A
:10077000FFF778FD411B03200229F5D9EBE07168F2
:100780000140082905D10320C0037168014081425E
:10079000BBD0706B0599096A002900D1A9E001213D
:1007A0000A04104370634C04FFF75CFD0546706B50
:1007B0002042B1D1FFF756FD411B03200229F6D993
:1007C000C9E0706B042101437163706B01218843A0
:1007D0007063FFF747FD0546706B80078CD5FFF708
:1007E00041FD411B03200229F6D9B4E0306A039988
:1007F00088433062306A042188433062584CFFF7E6
:1008000031FD0546306A80071DD5FFF72BFD411BE2
:100810000320A142F6D99EE0306A042101433162EF
:10082000306A0399084330624D4CFFF71BFD0546C3
:10083000306A800707D4FFF715FD401BA042F7D9A7
:10084000032007B0F0BD02980028059C00D07BE68D
:10085000F06901998843F06176E6010432688A43C1
:1008600032608004316881433160FFF7FBFC05464C
:10087000059C3068384200D13AE6FFF7F3FC411B93
:1008800003206429F5D966E0810432680A433260A6
:100890000104306808433060FFF7E4FC0546306827
:1008A000384200D024E6FFF7DDFC401B6428F6D96F
:1008B000032007B0F0BDC046001002400320C20371
:1008C00070680240F16A059CA36A9A42049D0DD1AA
:1008D0000F221140236B994208D191040840E16A2C
:1008E0008842284637D1002007B0F0BD284607B01F
:1008F000F0BD01210A04904370634C04FFF7B2FC81
:100900000546706B204200D106E7FFF7ABFC411BA8
:1009100003200229F5D91EE0F06A0F218843059AC9
:10092000116B0143F1627B20C00371688143D06A7F
:100930000843916A01437160306820433060FFF7DB
:1009400091FC044630683842CDD1FFF78BFC011B87
:1009500003200229F6D907B0F0BDC0460070004060
:1009600088130000401E010E01D001207047074986
:10097000074A5060AA4803680B40032189075918A9
:10098000016000209060072111607047FFFFFF00A9
:1009900010E000E0FEE7FEE77047704780B5FFF724
:1009A00065FC80BD704700000448818C044A1170CA
:1009B000016804220A4302607047C04600480040B4
:1009C0007000002000B597B0FFF75AFC0127F8042B
:1009D0008F490A6802430A60B8040A680243059016
:1009E0000A607A040B6813430B604A683A434A6012
:1009F0008A6802438A60874C2146103945220A6082
:100A000021461C390A683A430A600A6808231343DE
:100A10000B600A6804231A430A600A6820263243DE
:100A20000A600A681A430A6079077B4A1160FF214D
:100A30000A027A4B1D689543FA03AA181A60090640
:100A4000774A13688B4313607B027648014614395A
:100A50000A6802931A430A60FA020B6813430B6098
:100A60003A04C3681343C3603B05C5681D43C560B2
:100A70003B030D681D430D60BB030D681D430D60F6
:100A80000B6813430B600A68059802430A600AA8C2
:100A90000590001D30210091FFF7ACFB0025139558
:100AA00010200E900D9702200A900598FFF706FD82
:100AB000002803D0EFF3108072B6FEE70597099582
:100AC000089507950720069006A82946FFF738FCE9
:100AD000002803D0EFF3108072B6FEE70AA8057075
:100AE00021688020014021600BD1216801402160F4
:100AF00007D121680140216003D1216801402160B4
:100B0000EED061210391A1812168014021600BD1C8
:100B100021680140216007D121680140216003D193
:100B2000216801402160EFD03F4904E0ED1C4E5D9B
:100B30001B2D059A66D02268024022600BD12268E4
:100B40000240226007D122680240226003D122685D
:100B500002402260EFD0A6812268024022600BD1C1
:100B600022680240226007D122680240226003D13D
:100B7000226802402260EFD06A1853782668064047
:100B800026600BD126680640266007D126680640FD
:100B9000266003D1266806402660EFD0A381236833
:100BA000034023600BD123680340236007D12368EF
:100BB0000340236003D1236803402360EFD0927881
:100BC0002368034023600BD123680340236007D1CF
:100BD00023680340236003D1236803402360EFD0E0
:100BE000A281226802402260A0D1226802402260D5
:100BF0009CD122680240226098D122680240226083
:100C0000EFD093E711020191D34BD44D11E0C046D0
:100C1000141002401C48004000E100E01CE400E029
:100C200020ED00E014080048582E0008A1810021A2
:100C30001970216801402160FBD0216801402160CA
:100C40000BD121680140216007D12168014021605A
:100C500003D1216801402160EFD02022A2812168C8
:100C6000014021600BD121680140216007D121683A
:100C70000140216003D1216801402160EFD021684B
:100C8000014021600BD121680140216007D121681A
:100C90000140216003D1216801402160EFD0432150
:100CA000A1812168014021600BD1216801402160B0
:100CB00007D121680140216003D1216801402160F2
:100CC000EFD02168014021600BD1216801402160F3
:100CD00007D121680140216003D1216801402160D2
:100CE000EFD06F21A1812168014021600BD12168E3
:100CF0000140216007D121680140216003D12168B2
:100D000001402160EFD02168014021600BD12168B2
:100D10000140216007D121680140216003D1216891
:100D200001402160EFD06D21A18126680640266038
:100D30000BD126680640266007D12668064026604B
:100D400003D1266806402660EFD02668064026605C
:100D50000BD126680640266007D12668064026602B
:100D600003D1266806402660EFD0A18121680140AA
:100D700021600BD121680140216007D12168014029
:100D8000216003D1216801402160EFD0216801403A
:100D900021600BD121680140216007D12168014009
:100DA000216003D1216801402160EFD00399A18126
:100DB0002168014021600BD121680140216007D1E9
:100DC00021680140216003D1216801402160EFD0FA
:100DD0002168014021600BD121680140216007D1C9
:100DE00021680140216003D1216801402160EFD0DA
:100DF0006E21A1812168014021600BD12168014051
:100E0000216007D121680140216003D121680140A0
:100E10002160EFD02168014021600BD121680140A1
:100E2000216007D121680140216003D12168014080
:100E30002160EFD06426A6812168014021600BD19A
:100E400021680140216007D121680140216003D160
:100E5000216801402160EFD02168014021600BD161
:100E600021680140216007D121680140216003D140
:100E7000216801402160EFD03A21A1812168014021
:100E800021600BD121680140216007D12168014018
:100E9000216003D1216801402160EFD02168014029
:100EA00021600BD121680140216007D121680140F8
:100EB000216003D1216801402160EFD0A281216827
:100EC000014021600BD121680140216007D12168D8
:100ED0000140216003D1216801402160EFD00496D8
:100EE000002119701E78002E08D11E78002E05D121
:100EF0001E78002E02D11E78002EF3D01E782768AF
:100F0000074027600BD127680740276007D1276873
:100F10000740276003D1276807402760EFD0A681EC
:100F20001E78623E102E5ED87600C0467E44B6889B
:100F30007600B74415005800580058005800C40106
:100F40005800580058005800580058005800D8025F
:100F500058005800EF03C04670000020282F0008FA
:100F6000002119701A78002A08D11A78002A05D1B0
:100F70001A78002A02D11A78002AF3D01A78266843
:100F8000064026600BD126680640266007D12668F9
:100F90000640266003D1266806402660EFD0A28175
:100FA0001A78302A01D100F0BBFE312AE54E01D17A
:100FB00000F03CFF322A00D002E13168414031604C
:100FC0002168014021600BD121680140216007D1D7
:100FD00021680140216003D1216801402160EFD0E8
:100FE0000021202284E02168014021600BD121688A
:100FF0000140216007D121680140216003D12168AF
:1010000001402160EFD00021742204E0C91C6A5C19
:10101000122900D10BE62668064026600BD126680F
:101020000640266007D126680640266003D1266860
:1010300006402660EFD0A2812268024022600BD1D8
:1010400022680240226007D122680240226003D158
:10105000226802402260EFD04A195678276807407C
:1010600027600BD127680740276007D12768074012
:10107000276003D1276807402760EFD0A681266844
:10108000064026600BD126680640266007D12668F8
:101090000640266003D1266806402660EFD092788D
:1010A0002668064026600BD126680640266007D1D8
:1010B00026680640266003D1266806402660EFD0E9
:1010C000A281226802402260A0D1226802402260F0
:1010D0009CD122680240226098D12268024022609E
:1010E000EFD093E7C91C984A525C122900D19EE5C3
:1010F0002668064026600BD126680640266007D188
:1011000026680640266003D1266806402660EFD098
:10111000A2812268024022600BD122680240226034
:1011200007D122680240226003D122680240226077
:10113000EFD0854A8A1856782768074027600BD178
:1011400027680740276007D127680740276003D139
:10115000276807402760EFD0A681266806402660F2
:101160000BD126680640266007D126680640266017
:1011700003D1266806402660EFD0927826680640A4
:1011800026600BD126680640266007D126680640F7
:10119000266003D1266806402660EFD0A28122682F
:1011A000024022609ED12268024022609AD12268C9
:1011B0000240226096D1226802402260EFD091E77F
:1011C0002268024022600BD122680240226007D1CF
:1011D00022680240226003D1226802402260EFD0E0
:1011E000742205E0C91C6A5C122901D100F0A3FE3B
:1011F0002668064026600BD126680640266007D187
:1012000026680640266003D1266806402660EFD097
:10121000A2812268024022600BD122680240226033
:1012200007D122680240226003D122680240226076
:10123000EFD04A1956782768074027600BD12768F6
:101240000740276007D127680740276003D1276838
:1012500007402760EFD0A6812668064026600BD1A4
:1012600026680640266007D126680640266003D11E
:10127000266806402660EFD09278266806402660F1
:101280000BD126680640266007D1266806402660F6
:1012900003D1266806402660EFD0A2812268024072
:1012A00022609FD12268024022609BD122680240C6
:1012B000226097D1226802402260EFD092E700219D
:1012C00019701A78002A08D11A78002A05D11A78DC
:1012D000002A02D11A78002AF3D01A78266806402C
:1012E00026600BD126680640266007D12668064096
:1012F000266003D1266806402660EFD0A2811A78C6
:10130000302A01D100F030FE312A029E01D100F0D6
:1013100092FE322A68D10B4A11687140116021682F
:10132000014021600BD121680140216007D1216873
:101330000140216003D1216801402160EFD00021EC
:10134000202206E014080048012F0008891CEE4AFC
:10135000525C2668064026600BD12668064026604F
:1013600007D126680640266003D12668064026601D
:10137000EFD0A2812268024022600BD12268024095
:10138000226007D122680240226003D12268024015
:101390002260EFD00A46059E3243132A00D146E46C
:1013A000D94EB25C2668064026600BD126680640FE
:1013B000266007D126680640266003D126680640CD
:1013C0002660EFD0A281226802402260BED122684E
:1013D00002402260BAD1226802402260B6D122685F
:1013E00002402260EFD0B1E72268024022600BD1B8
:1013F00022680240226007D122680240226003D1A5
:10140000226802402260EFD0742205E0C91C6A5CA9
:10141000122901D1FFF70BFC2668064026600BD18C
:1014200026680640266007D126680640266003D15C
:10143000266806402660EFD0A28122680240226022
:101440000BD122680240226007D12268024022604C
:1014500003D1226802402260EFD04A1956782768EB
:10146000074027600BD127680740276007D127680E
:101470000740276003D1276807402760EFD0A68187
:101480002668064026600BD126680640266007D1F4
:1014900026680640266003D1266806402660EFD005
:1014A00092782668064026600BD1266806402660A2
:1014B00007D126680640266003D1266806402660CC
:1014C000EFD0A2812268024022609FD122680240B0
:1014D00022609BD122680240226097D1226802409C
:1014E0002260EFD092E7002119701E78002E08D1FB
:1014F0001E78002E05D11E78002E02D11E78002EF7
:10150000F3D01E782768074027600BD12768074073
:10151000276007D127680740276003D12768074065
:101520002760EFD0A6811E78302E01D100F0ECFDAF
:10153000312E01D100F059FE322E65D1734E316843
:10154000019F794031602168014021600BD1216801
:101550000140216007D121680140216003D1216849
:1015600001402160EFD0002106E0891C684A525CEE
:10157000142901D1FFF75BFB2668064026600BD1DA
:1015800026680640266007D126680640266003D1FB
:10159000266806402660EFD0A281226802402260C1
:1015A0000BD122680240226007D1226802402260EB
:1015B00003D1226802402260EFD00A46059E3243E2
:1015C000534EB25C2668064026600BD12668064062
:1015D000266007D126680640266003D126680640AB
:1015E0002660EFD0A281226802402260BDD122682D
:1015F00002402260B9D1226802402260B5D122683F
:1016000002402260EFD0B0E72268024022600BD196
:1016100022680240226007D122680240226003D182
:10162000226802402260EFD0742205E0C91C6A5C87
:10163000122901D1FFF7FBFA2668064026600BD17C
:1016400026680640266007D126680640266003D13A
:10165000266806402660EFD0A28122680240226000
:101660000BD122680240226007D12268024022602A
:1016700003D1226802402260EFD04A1956782768C9
:10168000074027600BD127680740276007D12768EC
:101690000740276003D1276807402760EFD0A68165
:1016A0002668064026600BD126680640266007D1D2
:1016B00026680640266003D1266806402660EFD0E3
:1016C00092782668064026600BD126680640266080
:1016D00007D126680640266003D1266806402660AA
:1016E000EFD0A2812268024022609FD1226802408E
:1016F00022609BD122680240226097D1226802407A
:101700002260EFD092E7C046142F0008140800486A
:10171000EC2E000819701E78002E08D11E78002EBD
:1017200005D11E78002E02D11E78002EF3D01E782F
:101730002768074027600BD127680740276007D13B
:1017400027680740276003D1276807402760EFD04C
:10175000A6811E78302E01D100F0B4FD312E01D1CA
:1017600001F00BF8322E00D05BE2034F39684026BF
:101770004E403E6002E0C046140800482168014027
:1017800021600BD121680140216007D1216801400F
:10179000216003D1216801402160EFD02168014020
:1017A00021600BD121680140216007D121680140EF
:1017B000216003D1216801402160EFD0A28121681E
:1017C000014021600BD121680140216007D12168CF
:1017D0000140216003D1216801402160EFD02168E0
:1017E000014021600BD121680140216007D12168AF
:1017F0000140216003D1216801402160EFD02D21FB
:10180000A1812168014021600BD121680140216044
:1018100007D121680140216003D121680140216086
:10182000EFD02168014021600BD121680140216087
:1018300007D121680140216003D121680140216066
:10184000EFD0A2812168014021600BD121680140C5
:10185000216007D121680140216003D12168014046
:101860002160EFD02168014021600BD12168014047
:10187000216007D121680140216003D12168014026
:101880002160EFD05221A1812668064026600BD14D
:1018900026680640266007D126680640266003D1E8
:1018A000266806402660EFD02668064026600BD1E9
:1018B00026680640266007D126680640266003D1C8
:1018C000266806402660EFD065263746A681266842
:1018D000064026600BD126680640266007D12668A0
:1018E0000640266003D1266806402660EFD02668B1
:1018F000064026600BD126680640266007D1266880
:101900000640266003D1266806402660EFD0049E7C
:10191000A6812668064026600BD126680640266010
:1019200007D126680640266003D126680640266057
:10193000EFD02668064026600BD126680640266058
:1019400007D126680640266003D126680640266037
:10195000EFD0A2812668064026600BD1266806409B
:10196000266007D126680640266003D12668064017
:101970002660EFD02668064026600BD12668064018
:10198000266007D126680640266003D126680640F7
:101990002660EFD03226A6812668064026600BD14D
:1019A00026680640266007D126680640266003D1D7
:1019B000266806402660EFD02668064026600BD1D8
:1019C00026680640266007D126680640266003D1B7
:1019D000266806402660EFD0A2812268024022607D
:1019E0000BD122680240226007D1226802402260A7
:1019F00003D1226802402260EFD0226802402260B8
:101A00000BD122680240226007D122680240226086
:101A100003D1226802402260EFD0A18121680140F9
:101A200021600BD121680140216007D1216801406C
:101A3000216003D1216801402160EFD0216801407D
:101A400021600BD121680140216007D1216801404C
:101A5000216003D1216801402160EFD0A781216876
:101A6000014021600BD121680140216007D121682C
:101A70000140216003D1216801402160EFD021683D
:101A8000014021600BD121680140216007D121680C
:101A90000140216003D1216801402160EFD0632122
:101AA000A1812168014021600BD1216801402160A2
:101AB00007D121680140216003D1216801402160E4
:101AC000EFD02168014021600BD1216801402160E5
:101AD00007D121680140216003D1216801402160C4
:101AE000EFD0A7812168014021600BD1216801401E
:101AF000216007D121680140216003D121680140A4
:101B00002160EFD02168014021600BD121680140A4
:101B1000216007D121680140216003D12168014083
:101B20002160EFD06921A1812168014021600BD1A2
:101B300021680140216007D121680140216003D163
:101B4000216801402160EFD02168014021600BD164
:101B500021680140216007D121680140216003D143
:101B6000216801402160EFD07621A18121680140E8
:101B700021600BD121680140216007D1216801401B
:101B8000216003D1216801402160EFD0216801402C
:101B900021600BD121680140216007D121680140FB
:101BA000216003D1216801402160EFD0A781216825
:101BB000014021600BD121680140216007D12168DB
:101BC0000140216003D1216801402160EFD02168EC
:101BD000014021600BD121680140216007D12168BB
:101BE0000140216003D1216801402160EFD00499B8
:101BF000A18121680140216001D0FFF718F8216818
:101C00000140216001D0FFF712F8216801402160F6
:101C100001D0FFF70CF8216801402160E9D0FFF7FF
:101C200006F82268024022600BD12268024022603E
:101C300007D122680240226003D12268024022605C
:101C4000EFD0742205E0C91C6A5C122901D1FEF7AD
:101C5000EEFF2668064026600BD126680640266007
:101C600007D126680640266003D126680640266014
:101C7000EFD0A2812268024022600BD1226802408C
:101C8000226007D122680240226003D1226802400C
:101C90002260EFD04A1956782768074027600BD199
:101CA00027680740276007D127680740276003D1CE
:101CB000276807402760EFD0A68126680640266087
:101CC0000BD126680640266007D1266806402660AC
:101CD00003D1266806402660EFD092782668064039
:101CE00026600BD126680640266007D1266806408C
:101CF000266003D1266806402660EFD0A2812268C4
:101D0000024022609FD12268024022609BD122685B
:101D10000240226097D1226802402260EFD092E711
:101D2000F84A1168814311602168014021600BD19C
:101D300021680140216007D121680140216003D161
:101D4000216801402160EFD00021202206E0C91C5B
:101D5000FA4A525C122901D1FEF769FF2668064053
:101D600026600BD126680640266007D1266806400B
:101D7000266003D1266806402660EFD0A281226843
:101D8000024022600BD122680240226007D1226803
:101D90000240226003D1226802402260EFD0E74A6D
:101DA0008A1856782768074027600BD127680740B4
:101DB000276007D127680740276003D127680740BD
:101DC0002760EFD0A6812668064026600BD12668E2
:101DD0000640266007D126680640266003D12668A3
:101DE00006402660EFD092782668064026600BD128
:101DF00026680640266007D126680640266003D183
:101E0000266806402660EFD0A28122680240226048
:101E10009DD122680240226099D12268024022604E
:101E200095D1226802402260EFD090E731680143EB
:101E300031602168014021600BD12168014021609F
:101E400007D121680140216003D121680140216050
:101E5000EFD00021202206E0C91CB94A525C1229A9
:101E600001D1FEF7E4FE2668064026600BD1266805
:101E70000640266007D126680640266003D1266802
:101E800006402660EFD0A2812268024022600BD17A
:101E900022680240226007D122680240226003D1FA
:101EA000226802402260EFD0A54A8A185678276837
:101EB000074027600BD127680740276007D12768B4
:101EC0000740276003D1276807402760EFD0A6812D
:101ED0002668064026600BD126680640266007D19A
:101EE00026680640266003D1266806402660EFD0AB
:101EF00092782668064026600BD126680640266048
:101F000007D126680640266003D126680640266071
:101F1000EFD0A2812268024022609DD12268024057
:101F2000226099D122680240226095D12268024045
:101F30002260EFD090E7197822680240226001D039
:101F4000FEF774FE22680240226001D0FEF76EFEAA
:101F500022680240226001D0FEF768FE226802403B
:101F60002260E9D0FEF762FE734E3168029A914317
:101F700031602168014021600BD12168014021605E
:101F800007D121680140216003D12168014021600F
:101F9000EFD00021202202E0891C6A4A525C2668A8
:101FA000064026600BD126680640266007D12668C9
:101FB0000640266003D1266806402660EFD0A28145
:101FC0002268024022600BD122680240226007D1C1
:101FD00022680240226003D1226802402260EFD0D2
:101FE0000A46059E3243132A01D1FEF720FE554EC4
:101FF000B25C2668064026600BD126680640266043
:1020000007D126680640266003D126680640266070
:10201000EFD0A281226802402260BDD12268024036
:102020002260B9D1226802402260B5D12268024004
:102030002260EFD0B0E7404A116831431160216857
:10204000014021600BD121680140216007D1216846
:102050000140216003D1216801402160EFD00021BF
:10206000202202E0891C384A525C2668064026601D
:102070000BD126680640266007D1266806402660F8
:1020800003D1266806402660EFD0A2812268024074
:1020900022600BD122680240226007D122680240F0
:1020A000226003D1226802402260EFD00A46059EDA
:1020B0003243132A01D1FEF7BAFD234EB25C2668E3
:1020C000064026600BD126680640266007D12668A8
:1020D0000640266003D1266806402660EFD0A28124
:1020E000226802402260BDD1226802402260B9D13C
:1020F000226802402260B5D1226802402260EFD0FF
:10210000B0E7C046140800480B4A1168019EB1436D
:1021100011602168014021600BD1216801402160DC
:1021200007D121680140216003D12168014021606D
:10213000EFD00021202210E014080048892E00086A
:10214000C52E00089C2E0008D82E0008891C5A4A6B
:10215000525C142901D1FEF76AFD2668064026600C
:102160000BD126680640266007D126680640266007
:1021700003D1266806402660EFD0A2812268024083
:1021800022600BD122680240226007D122680240FF
:10219000226003D1226802402260EFD00A46059EE9
:1021A0003243454EB25C2668064026600BD1266855
:1021B0000640266007D126680640266003D12668BF
:1021C00006402660EFD0A281226802402260BDD185
:1021D000226802402260B9D1226802402260B5D153
:1021E000226802402260EFD0B0E7344A1168019EB5
:1021F000314311602168014021600BD12168014009
:10220000216007D121680140216003D1216801408C
:102210002160EFD00021202206E0891C284A525C70
:10222000142901D1FEF703FD2668064026600BD174
:1022300026680640266007D126680640266003D13E
:10224000266806402660EFD0A28122680240226004
:102250000BD122680240226007D12268024022602E
:1022600003D1226802402260EFD00A46059E324325
:10227000134EB25C2668064026600BD126680640E5
:10228000266007D126680640266003D126680640EE
:102290002660EFD0A281226802402260BDD1226870
:1022A00002402260B9D1226802402260B5D1226882
:1022B00002402260EFD0B0E7742E000814080048F6
:1022C000B02E0008024F39684026B143396001E062
:1022D000140800482168014021600BD121680140A9
:1022E000216007D121680140216003D121680140AC
:1022F0002160EFD02168014021600BD121680140AD
:10230000216007D121680140216003D1216801408B
:102310002160EFD0A2812168014021600BD12168AA
:102320000140216007D121680140216003D121686B
:1023300001402160EFD02168014021600BD121686C
:102340000140216007D121680140216003D121684B
:1023500001402160EFD02D21A18121680140216041
:102360000BD121680140216007D121680140216023
:1023700003D1216801402160EFD021680140216034
:102380000BD121680140216007D121680140216003
:1023900003D1216801402160EFD0A2812168014072
:1023A00021600BD121680140216007D121680140E3
:1023B000216003D1216801402160EFD021680140F4
:1023C00021600BD121680140216007D121680140C3
:1023D000216003D1216801402160EFD05221A18109
:1023E0002668064026600BD126680640266007D185
:1023F00026680640266003D1266806402660EFD096
:102400002668064026600BD126680640266007D164
:1024100026680640266003D1266806402660EFD075
:1024200065263746A6812668064026600BD12668B9
:102430000640266007D126680640266003D126683C
:1024400006402660EFD02668064026600BD126683D
:102450000640266007D126680640266003D126681C
:1024600006402660EFD0049EA681266806402660BE
:102470000BD126680640266007D1266806402660F4
:1024800003D1266806402660EFD026680640266005
:102490000BD126680640266007D1266806402660D4
:1024A00003D1266806402660EFD0A2812668064048
:1024B00026600BD126680640266007D126680640B4
:1024C000266003D1266806402660EFD026680640C5
:1024D00026600BD126680640266007D12668064094
:1024E000266003D1266806402660EFD0009EA681B4
:1024F0002668064026600BD126680640266007D174
:1025000026680640266003D1266806402660EFD084
:102510002668064026600BD126680640266007D153
:1025200026680640266003D1266806402660EFD064
:10253000A2812268024022600BD122680240226000
:1025400007D122680240226003D122680240226043
:10255000EFD02268024022600BD122680240226044
:1025600007D122680240226003D122680240226023
:10257000EFD0A1812168014021600BD12168014089
:10258000216007D121680140216003D12168014009
:102590002160EFD02168014021600BD1216801400A
:1025A000216007D121680140216003D121680140E9
:1025B0002160EFD0A7812168014021600BD1216803
:1025C0000140216007D121680140216003D12168C9
:1025D00001402160EFD02168014021600BD12168CA
:1025E0000140216007D121680140216003D12168A9
:1025F00001402160EFD06321A18121680140216069
:102600000BD121680140216007D121680140216080
:1026100003D1216801402160EFD021680140216091
:102620000BD121680140216007D121680140216060
:1026300003D1216801402160EFD0A78121680140CA
:1026400021600BD121680140216007D12168014040
:10265000216003D1216801402160EFD02168014051
:1026600021600BD121680140216007D12168014020
:10267000216003D1216801402160EFD06921A1814F
:102680002168014021600BD121680140216007D100
:1026900021680140216003D1216801402160EFD011
:1026A0002168014021600BD121680140216007D1E0
:1026B00021680140216003D1216801402160EFD0F1
:1026C0007621A1812168014021600BD12168014060
:1026D000216007D121680140216003D121680140B8
:1026E0002160EFD02168014021600BD121680140B9
:1026F000216007D121680140216003D12168014098
:102700002160EFD0A7812168014021600BD12168B1
:102710000140216007D121680140216003D1216877
:1027200001402160EFD02168014021600BD1216878
:102730000140216007D121680140216003D1216857
:1027400001402160EFD00499A181216801402160FE
:1027500001D0FEF76CFA21680140216001D0FEF73C
:1027600066FA21680140216001D0FEF760FA216815
:1027700001402160E9D0FEF75AFA034F396840263C
:102780000E433E6002E0C046140800482168014044
:1027900021600BD121680140216007D121680140EF
:1027A000216003D1216801402160EFD02168014000
:1027B00021600BD121680140216007D121680140CF
:1027C000216003D1216801402160EFD0A2812168FE
:1027D000014021600BD121680140216007D12168AF
:1027E0000140216003D1216801402160EFD02168C0
:1027F000014021600BD121680140216007D121688F
:102800000140216003D1216801402160EFD02D21DA
:10281000A1812168014021600BD121680140216024
:1028200007D121680140216003D121680140216066
:10283000EFD02168014021600BD121680140216067
:1028400007D121680140216003D121680140216046
:10285000EFD0A2812168014021600BD121680140A5
:10286000216007D121680140216003D12168014026
:102870002160EFD02168014021600BD12168014027
:10288000216007D121680140216003D12168014006
:102890002160EFD05221A1812668064026600BD12D
:1028A00026680640266007D126680640266003D1C8
:1028B000266806402660EFD02668064026600BD1C9
:1028C00026680640266007D126680640266003D1A8
:1028D000266806402660EFD065263746A681266822
:1028E000064026600BD126680640266007D1266880
:1028F0000640266003D1266806402660EFD0266891
:10290000064026600BD126680640266007D126685F
:102910000640266003D1266806402660EFD0049E5C
:10292000A6812668064026600BD1266806402660F0
:1029300007D126680640266003D126680640266037
:10294000EFD02668064026600BD126680640266038
:1029500007D126680640266003D126680640266017
:10296000EFD0A2812668064026600BD1266806407B
:10297000266007D126680640266003D126680640F7
:102980002660EFD02668064026600BD126680640F8
:10299000266007D126680640266003D126680640D7
:1029A0002660EFD03126A6812668064026600BD12E
:1029B00026680640266007D126680640266003D1B7
:1029C000266806402660EFD02668064026600BD1B8
:1029D00026680640266007D126680640266003D197
:1029E000266806402660EFD0A2812268024022605D
:1029F0000BD122680240226007D122680240226087
:102A000003D1226802402260EFD022680240226097
:102A10000BD122680240226007D122680240226066
:102A200003D1226802402260EFD0A18121680140D9
:102A300021600BD121680140216007D1216801404C
:102A4000216003D1216801402160EFD0216801405D
:102A500021600BD121680140216007D1216801402C
:102A6000216003D1216801402160EFD0A781216856
:102A7000014021600BD121680140216007D121680C
:102A80000140216003D1216801402160EFD021681D
:102A9000014021600BD121680140216007D12168EC
:102AA0000140216003D1216801402160EFD0632102
:102AB000A1812168014021600BD121680140216082
:102AC00007D121680140216003D1216801402160C4
:102AD000EFD02168014021600BD1216801402160C5
:102AE00007D121680140216003D1216801402160A4
:102AF000EFD0A7812168014021600BD121680140FE
:102B0000216007D121680140216003D12168014083
:102B10002160EFD02168014021600BD12168014084
:102B2000216007D121680140216003D12168014063
:102B30002160EFD06921A1812168014021600BD182
:102B400021680140216007D121680140216003D143
:102B5000216801402160EFD02168014021600BD144
:102B600021680140216007D121680140216003D123
:102B7000216801402160EFD07621A18121680140C8
:102B800021600BD121680140216007D121680140FB
:102B9000216003D1216801402160EFD0216801400C
:102BA00021600BD121680140216007D121680140DB
:102BB000216003D1216801402160EFD0A781216805
:102BC000014021600BD121680140216007D12168BB
:102BD0000140216003D1216801402160EFD02168CC
:102BE000014021600BD121680140216007D121689B
:102BF0000140216003D1216801402160EFD0049998
:102C0000A18121680140216001D0FEF710F8216800
:102C10000140216001D0FEF70AF8216801402160DF
:102C200001D0FEF704F8216801402160E9D0FDF7EA
:102C3000FEFF43088B421AD3002203098B4279D34B
:102C4000030A8B425ED3030B8B4242D3030C8B42AD
:102C500027D30902FF2212BA030C8B4202D31212AD
:102C6000090203D0030B8B4233D31AE0D3E0411A9D
:102C70008041401C704703460B4371D443088B428C
:102C8000F5D3002203098B4254D3030A8B4239D374
:102C9000030B8B421DD3030C8B4202D394466EE090
:102CA000090AC30B8B4201D3CB03C01A5241830BD9
:102CB0008B4201D38B03C01A5241430B8B4201D389
:102CC0004B03C01A5241030B8B4201D30B03C01AB2
:102CD0005241C30A8B4201D3CB02C01A5241830A2C
:102CE0008B4201D38B02C01A5241430A8B4201D35B
:102CF0004B02C01A5241030A8B4201D30B02C01A85
:102D00005241CDD2C3098B4201D3CB01C01A5241EB
:102D100083098B4201D38B01C01A524143098B4274
:102D200001D34B01C01A524103098B4201D30B015D
:102D3000C01A5241C3088B4201D3CB00C01A524182
:102D400083088B4201D38B00C01A524143088B4247
:102D500001D34B00C01A5241411A52411000704732
:102D6000CA0F00D04942031000D340425340002212
:102D70009C4603098B422DD3030A8B4212D389014F
:102D8000FC2212BA030A8B420CD3890192118B42A6
:102D900008D3890192118B4204D3890137D0921153
:102DA00000E08909C3098B4201D3CB01C01A52410B
:102DB00083098B4201D38B01C01A524143098B42D4
:102DC00001D34B01C01A524103098B4201D30B01BD
:102DD000C01A5241C3088B4201D3CB00C01A5241E2
:102DE00083088B4201D38B00C01A5241D9D24308C9
:102DF0008B4201D34B00C01A5241411A00D2014606
:102E00005241104663465B1000D340427047634610
:102E10005B1000D3404201B50021004201D0C943FC
:102E20000846C046C04602BD000000000000000089
:102E3000010203040607080902030405060708093E
:102E40000A0B0C0D0E0F10100102030405060708F3
:102E5000090A0B0C0D0E0F10202020596F757220DF
:102E600055534152543320697320776F726B696EEA
:102E700067200A00202D204F72616E676520302088
:102E8000526563656976656400202D20426C756526
:102E9000203020526563656976656400202D2047E7
:102EA0007265656E203020526563656976656400E1
:102EB000202D204F72616E67652031205265636559
:102EC0006976656400202D20426C756520312052A2
:102ED0006563656976656400202D20477265656EBF
:102EE000203120526563656976656400202D204F8E
:102EF00072616E676520322052656365697665642C
:102F000000202D20426C7565203220526563656972
:102F100076656400202D20477265656E2032205250
:102F200065636569766564007468657265207761BC
:102F30007320616E206572726F720000602F00084E
:102F400000000020100000001C010008702F000885
:102F500010000020680600003C010008000000008E
:102F6000010000000400000000127A0000000000D0
:04000005080000C12E
:00000001FF
