:020000040800F2
:100000007806002081010008BB090008B909000832
:1000100000000000000000000000000000000000E0
:10002000000000000000000000000000BF09000800
:100030000000000000000000BD090008C109000820
:100040009301000893010008930100089301000840
:100050009301000893010008930100089301000830
:100060009301000893010008930100089301000820
:100070009301000893010008930100089301000810
:100080009301000893010008930100089301000800
:1000900093010008930100089301000893010008F0
:1000A00093010008930100089301000893010008E0
:1000B00093010008930100089301000893010008D0
:1000C00000F002F800F04CF812A030C808382418EC
:1000D0002D18AC4201D100F043F80FCCA246AB463C
:1000E0000CA730CF2D1B083F3F197C427F1E544484
:1000F0002D090426F441641EAC4201D300F030F80F
:100100000126334200D0FB1A3343984754465D46DC
:10011000DFE70000AC170000CC170000103A02D354
:1001200078C878C1FAD8520701D330C830C101D598
:1001300004680C6070470000704700000023002432
:1001400000250026103A01D378C1FBD8520700D30E
:1001500030C100D50B6070471FB51FBD10B510BD75
:1001600000F04DF81146FFF7F7FF00F02FFC00F00C
:1001700065F803B4FFF7F2FF03BC00F06BF8000072
:100180000748804707480047FEE7FEE7FEE7FEE72F
:10019000FEE7FEE704480549054A064B70470000A4
:1001A000C9090008C1000008780000207806002076
:1001B000780200207802002001E004C0091F042911
:1001C000FBD28B0701D50280801CC90700D00270CA
:1001D000704700290BD0C30702D00270401C491E93
:1001E000022904D3830702D50280801C891EE3E71D
:1001F0000022EEE70022DFE7704770477047754640
:1002000000F024F8AE46050069465346C008C00019
:10021000854618B020B5FFF7BDFF60BCB646002686
:100220000027C0C5C0C5C0C5C0C5C0C5C0C5C0C504
:10023000C0C5403D490849008D46704710B5044689
:10024000C046C0462046FFF794FF10BD00487047E7
:100250001000002001491820ABBEFEE72600020076
:1002600070470000B0B5044600F00CF80546601C6D
:1002700002D021480078041900F004F8401BA04285
:10028000FAD3B0BD054800687047C0461A480078E8
:1002900002490A68101808607047C04674000020C0
:1002A00080B58548016810220A430260032000F0EF
:1002B00005F800F023F8002080BDC04670B5044664
:1002C0007D20C0000C4E317801F0D2F90146824801
:1002D000006801F0CDF900F055FB0125032C08D88A
:1002E000002806D10025E84321462A4600F01CF8E4
:1002F0007460284670BDC0460000002082B00948E6
:1003000001680122114301600168114001910199C6
:10031000110742680A434260406808400090009814
:1003200002B0704718100240002805D4032203468B
:1003300093430A4A9A1803E00C220240064BD21853
:100340008007C00E8901C9B28140FF238340106835
:10035000984308431060704714ED00E000E400E0AB
:10036000F0B581B0002846D00446534A13680120F6
:1003700003408B4208D213680126B3430B4313603A
:10038000126832408A4237D1009121688A074B4B6C
:1003900010D54A0706D5072212021B681343474AA5
:1003A0001360464B1A68F0239A43A3681343434AE9
:1003B0001360424BC90722D13F49086801263040EB
:1003C000009A904205D90868B04308600868C007E1
:1003D00012D12078400706D5072000021968814312
:1003E000E068084318601A681007810F3548022931
:1003F00012D2044650E00126304601B0F0BD6168DB
:1004000003290DD01A1F02290FD0012912D1126819
:1004100092030646F0D511E0032926D12A4C3BE091
:100420001A6B92030646E7D508E012689201064669
:10043000E2D503E0126892070646DDD51868032668
:10044000B04308431860FFF71DFF07461C4D1B4BC8
:1004500018680C210140606880008142ACD0FFF731
:1004600011FFC01BA842F2D9C6E70321CB031349F1
:10047000896A0F240C401549095D94021A40240F23
:10048000134D2C5D9A4202D033049A4200E00E488C
:1004900001F0EEF84443094B18680006000F0D49BF
:1004A000085CC4400C4804600320FFF707FF0026E7
:1004B000304601B0F0BDC0460020024004100240AA
:1004C0008813000000127A00006CDC028618000815
:1004D000761800086618000808000020F0B587B0FC
:1004E00004460120002C00D145E204902078C0078A
:1004F000F94E05940CD071680C200140042900D0FD
:1005000090E03068800303D56068002800D120E1C6
:100510002078800721D570680007800F0ED07068A2
:100520000C210140082900D09DE00320C003716820
:1005300001400120C003814200D094E03068800770
:10054000059C03D5E068012800D002E13068F8215D
:1005500088432169C90001433160059C2078000768
:1005600024D42078400737D42078C00600D4D3E0C4
:1005700005984069411D00D1C2E0012800D030E15A
:10058000706B042101437163706B0121014371633E
:10059000FFF778FE0546706B800700D5B4E0FFF7E3
:1005A00071FE411B03200229F5D9E4E1706AE1697B
:1005B000002900D181E0012108437062FFF762FE4B
:1005C0000546706A8007CCD4FFF75CFE401B02280A
:1005D000F7D9032007B0F0BD012003900107F069AF
:1005E0000840029006D1F0690843F061F0690840C4
:1005F000069006980191E14F3868C0054AD40398E7
:100600000402386820433860FFF73CFE054638682E
:1006100020423FD1FFF736FE401B6428F7D9032064
:1006200007B0F0BD71680140082908D10320C0035C
:100630007168014001200004814200D161E76168D6
:1006400001204704002900D117E1052900D12BE141
:10065000012900D12CE1010432688A43326081040F
:100660003068884327E13068059CE168002936D06E
:10067000012108433060FFF705FE0546306880071A
:1006800000D563E7FFF7FEFD401B0228F6D90320E3
:1006900007B0F0BD05988068002800D1B6E00528B5
:1006A00000D1C9E0012800D1CAE0306A039988432B
:1006B0003062306A04218843C5E0012188437062BA
:1006C000FFF7E0FD0546706A800700D449E7FFF7B1
:1006D000D9FD401B0228F6D9032007B0F0BD012147
:1006E00088433060FFF7CEFD05463068800700D4B0
:1006F00033E7FFF7C7FD411B03200229F5D93AE193
:10070000706B042188437063706BF82188430599EE
:100710008969C900014371630598007880060BD58B
:1007200071680C2001400C2939D1706B800303D50E
:100730000598006A01280CD10598446A002C00D164
:10074000E1E070680C210140082905D1012C00D09E
:10075000C4E0049807B0F0BD01200206316804929D
:10076000914331604706FFF78DFD0546022C0BD102
:10077000049C3068384200D1DEE0FFF783FD411B66
:1007800003200229F5D9F6E03068384200D1BAE0FA
:10079000FFF778FD411B03200229F5D9EBE07168D2
:1007A0000140082905D10320C0037168014081423E
:1007B000BBD0706B0599096A002900D1A9E001211D
:1007C0000A04104370634C04FFF75CFD0546706B30
:1007D0002042B1D1FFF756FD411B03200229F6D973
:1007E000C9E0706B042101437163706B0121884380
:1007F0007063FFF747FD0546706B80078CD5FFF7E8
:1008000041FD411B03200229F6D9B4E0306A039967
:1008100088433062306A042188433062584CFFF7C5
:1008200031FD0546306A80071DD5FFF72BFD411BC2
:100830000320A142F6D99EE0306A042101433162CF
:10084000306A0399084330624D4CFFF71BFD0546A3
:10085000306A800707D4FFF715FD401BA042F7D987
:10086000032007B0F0BD02980028059C00D07BE66D
:10087000F06901998843F06176E6010432688A43A1
:1008800032608004316881433160FFF7FBFC05462C
:10089000059C3068384200D13AE6FFF7F3FC411B73
:1008A00003206429F5D966E0810432680A43326086
:1008B0000104306808433060FFF7E4FC0546306807
:1008C000384200D024E6FFF7DDFC401B6428F6D94F
:1008D000032007B0F0BDC046001002400320C20351
:1008E00070680240F16A059CA36A9A42049D0DD18A
:1008F0000F221140236B994208D191040840E16A0C
:100900008842284637D1002007B0F0BD284607B0FE
:10091000F0BD01210A04904370634C04FFF7B2FC60
:100920000546706B204200D106E7FFF7ABFC411B88
:1009300003200229F5D91EE0F06A0F218843059AA9
:10094000116B0143F1627B20C00371688143D06A5F
:100950000843916A01437160306820433060FFF7BB
:1009600091FC044630683842CDD1FFF78BFC011B67
:1009700003200229F6D907B0F0BDC0460070004040
:1009800088130000401E010E01D001207047074966
:10099000074A5060074803680B400321890759182C
:1009A000016000209060072111607047FFFFFF0089
:1009B00010E000E020ED00E0FEE7FEE77047704742
:1009C00080B5FFF763FC80BD7047000000B597B0AD
:1009D000FFF766FC0127F8047F490A6802430A60B2
:1009E000B8040A6802430A607A040B6813430B6078
:1009F0004A683A434A608A6802438A60774E3146C1
:100A0000103945220A6031461C390A683A430A60A7
:100A10000A68082313430B600A68042313430B601E
:100A20000A68202305931A430A6079076C4A11600B
:100A3000FF2109026B4A13688B430321890359186C
:100A400011607B02684D294614390A6802931A43E3
:100A50000A60FA020B6813430B603A04EB68134315
:100A6000EB603B05EC681C43EC603B030C681C43EB
:100A70000C60BB030C681C430C600B6813430B60D9
:100A80000A6802430A60594C002525700AA80490A0
:100A9000001D3021FFF7AEFB139510200E900D972F
:100AA00002200A900498FFF719FD002803D0EFF305
:100AB000108072B6FEE70197099508950795072003
:100AC000069006A82946FFF74BFC002803D0EFF359
:100AD000108072B6FEE70AA82F46057030688025A0
:100AE000284030600BD130682840306007D1306832
:100AF0002840306003D1306828403060EED061205B
:100B00000490B08164200390FFF7ACFB306828406C
:100B100030600BD130682840306007D13068284001
:100B2000306003D1306828403060EFD05921304820
:100B3000059B05E03A46BA1C815C1746162A46D04A
:100B400032682A4032600BD132682A40326007D1C5
:100B500032682A40326003D132682A403260EFD0D6
:100B6000B1813168294031600BD131682940316051
:100B700007D131682940316003D1316829403160A3
:100B8000EFD03946019A1143415C32682A40326005
:100B90000BD132682A40326007D132682A40326075
:100BA00003D132682A403260EFD0B18131682940E8
:100BB0003160BFD1316829403160BBD131682940F3
:100BC0003160B7D1316829403160EFD0B2E7019888
:100BD00000020190F44916E0141002401C48004045
:100BE00000E100E01CE400E0140800487000002070
:100BF00096180008ED4B1868402202431846026020
:100C000000202070059B306828403060FBD03068A1
:100C1000284030600BD130682840306007D1306800
:100C20002840306003D1306828403060EFD0B38175
:100C30003068284030600BD130682840306007D1E0
:100C400030682840306003D1306828403060EFD0F1
:100C50003068284030600BD130682840306007D1C0
:100C600030682840306003D1306828403060EFD0D1
:100C7000B3813068284030600BD130682840306044
:100C800007D130682840306003D130682840306098
:100C9000EFD03068284030600BD130682840306099
:100CA00007D130682840306003D130682840306078
:100CB000EFD0B3813068284030600BD130682840D5
:100CC000306007D130682840306003D13068284058
:100CD0003060EFD03068284030600BD13068284059
:100CE000306007D130682840306003D13068284038
:100CF0003060EFD04320B0813068284030600BD1A5
:100D000030682840306007D130682840306003D117
:100D1000306828403060EFD03068284030600BD118
:100D200030682840306007D130682840306003D1F7
:100D3000306828403060EFD06F20B08130682840A4
:100D400030600BD130682840306007D130682840CF
:100D5000306003D1306828403060EFD030682840E0
:100D600030600BD130682840306007D130682840AF
:100D7000306003D1306828403060EFD06D22B281FE
:100D80003068284030600BD130682840306007D18F
:100D900030682840306003D1306828403060EFD0A0
:100DA0003068284030600BD130682840306007D16F
:100DB00030682840306003D1306828403060EFD080
:100DC000B2813068284030600BD1306828403060F4
:100DD00007D130682840306003D130682840306047
:100DE000EFD03068284030600BD130682840306048
:100DF00007D130682840306003D130682840306027
:100E0000EFD00498B0813068284030600BD1306852
:100E10002840306007D130682840306003D1306806
:100E200028403060EFD03068284030600BD1306807
:100E30002840306007D130682840306003D13068E6
:100E400028403060EFD06E20B0813068284030609C
:100E50000BD130682840306007D1306828403060BE
:100E600003D1306828403060EFD0306828403060CF
:100E70000BD130682840306007D13068284030609E
:100E800003D1306828403060EFD00398B0813068DB
:100E9000284030600BD130682840306007D130687E
:100EA0002840306003D1306828403060EFD030688F
:100EB000284030600BD130682840306007D130685E
:100EC0002840306003D1306828403060EFD03A20AD
:100ED000B0813068284030600BD1306828403060E5
:100EE00007D130682840306003D130682840306036
:100EF000EFD03068284030600BD130682840306037
:100F000007D130682840306003D130682840306015
:100F1000EFD0B3813068284030600BD13068284072
:100F2000306007D130682840306003D130682840F5
:100F30003060EFD02078002808D12078002805D133
:100F40002078002802D120780028F3D02278306859
:100F5000284030600BD130682840306007D13068BD
:100F60002840306003D1306828403060EFD0B28133
:100F700020786238102849D84000C04678448088DC
:100F800040008744150043004300430043004001F4
:100F90004300430043004300430043004300EC018F
:100FA000430043009C02C046AD18000814080048E6
:100FB000002222702078002808D12078002805D14E
:100FC0002078002802D120780028F3D020783368D8
:100FD0002B4033600BD133682B40336007D133682B
:100FE0002B40336003D133682B403360EFD0B081A6
:100FF0002078302800D111E3312800D113E33228C2
:1010000000D082E0F64802686A40F8E5306828407F
:1010100030600BD130682840306007D130682840FC
:10102000306003D1306828403060EFD00022742354
:1010300004E0D21C8B5C122A00D1E1E53068284024
:1010400030600BD130682840306007D130682840CC
:10105000306003D1306828403060EFD0B381306811
:10106000284030600BD130682840306007D13068AC
:101070002840306003D1306828403060EFD05318EA
:10108000587837682F4037600BD137682F4037606A
:1010900007D137682F40376003D137682F4037605A
:1010A000EFD0B0813068284030600BD130682840E4
:1010B000306007D130682840306003D13068284064
:1010C0003060EFD0987833682B4033600BD13368B1
:1010D0002B40336007D133682B40336003D1336832
:1010E0002B403360EFD0B081306828403060A0D111
:1010F0003068284030609CD130682840306098D1FA
:10110000306828403060EFD093E730682840306086
:101110000BD130682840306007D1306828403060FB
:1011200003D1306828403060EFD0742304E0D21C33
:101130008B5C122A00D163E53068284030600BD107
:1011400030682840306007D130682840306003D1D3
:10115000306828403060EFD0B3813068284030607C
:101160000BD130682840306007D1306828403060AB
:1011700003D1306828403060EFD053185878376872
:101180002F4037600BD137682F40376007D1376861
:101190002F40376003D137682F403760EFD0B081E0
:1011A0003068284030600BD130682840306007D16B
:1011B00030682840306003D1306828403060EFD07C
:1011C000987833682B4033600BD133682B40336001
:1011D00007D133682B40336003D133682B40336031
:1011E000EFD0B081306828403060A0D1306828400E
:1011F00030609CD130682840306098D130682840F9
:101200003060EFD093E7002222702078002808D1C8
:101210002078002805D12078002802D120780028E5
:10122000F3D0207833682B4033600BD133682B40E8
:10123000336007D133682B40336003D133682B40D0
:101240003360EFD0B0812078302800D1F0E1312830
:10125000029B00D1F2E1322803D1614802685A4072
:10126000CDE43068284030600BD1306828403060D1
:1012700007D130682840306003D1306828403060A2
:10128000EFD0742304E0D21C8B5C122A00D1B7E4A7
:101290003068284030600BD130682840306007D17A
:1012A00030682840306003D1306828403060EFD08B
:1012B000B3813068284030600BD1306828403060FE
:1012C00007D130682840306003D130682840306052
:1012D000EFD05318587837682F4037600BD13768F4
:1012E0002F40376007D137682F40376003D1376808
:1012F0002F403760EFD0B0813068284030600BD18C
:1013000030682840306007D130682840306003D111
:10131000306828403060EFD0987833682B403360D5
:101320000BD133682B40336007D133682B403360D7
:1013300003D133682B403360EFD0B0813068284050
:101340003060A0D13068284030609CD1306828409F
:10135000306098D1306828403060EFD093E70022A9
:1013600022702078002808D12078002805D1207824
:10137000002802D120780028F3D0207833682B4051
:1013800033600BD133682B40336007D133682B4077
:10139000336003D133682B403360EFD0B0812078C5
:1013A000302800D14FE1312800D152E1322804D158
:1013B000AE480268019B5A4021E430682840306002
:1013C0000BD130682840306007D130682840306049
:1013D00003D1306828403060EFD0742308E0C04665
:1013E00014080048D21C8B5C122A01D1FFF708FCBC
:1013F0003068284030600BD130682840306007D119
:1014000030682840306003D1306828403060EFD029
:10141000B3813068284030600BD13068284030609C
:1014200007D130682840306003D1306828403060F0
:10143000EFD05318587837682F4037600BD1376892
:101440002F40376007D137682F40376003D13768A6
:101450002F403760EFD0B0813068284030600BD12A
:1014600030682840306007D130682840306003D1B0
:10147000306828403060EFD0987833682B40336074
:101480000BD133682B40336007D133682B40336076
:1014900003D133682B403360EFD0B08130682840EF
:1014A00030609FD13068284030609BD13068284040
:1014B000306097D1306828403060EFD092E700224A
:1014C00022702078002808D12078002805D12078C3
:1014D000002802D120780028F3D0237830682840F3
:1014E00030600BD130682840306007D13068284028
:1014F000306003D1306828403060EFD0B38120786D
:10150000302800D1ABE0312801D1FFF773FB32283E
:1015100005D1564B186840224240FFF76FFB3068F8
:10152000284030600BD130682840306007D13068E7
:101530002840306003D1306828403060EFD07423F9
:1015400005E0D21C8B5C122A01D1FFF759FB3068F1
:10155000284030600BD130682840306007D13068B7
:101560002840306003D1306828403060EFD0B3812C
:101570003068284030600BD130682840306007D197
:1015800030682840306003D1306828403060EFD0A8
:101590005318587837682F4037600BD137682F4081
:1015A000376007D137682F40376003D137682F4045
:1015B0003760EFD0B0813068284030600BD13068A0
:1015C0002840306007D130682840306003D130684F
:1015D00028403060EFD0987833682B4033600BD1CF
:1015E00033682B40336007D133682B40336003D11D
:1015F00033682B403360EFD0B081306828403060D2
:101600009FD13068284030609BD1306828403060DE
:1016100097D1306828403060EFD092E713480268D5
:101620002A40FFF7ECFA114802682A43FFF7E7FA6D
:101630000E4B1A6802980240FFF7E0FA0B48026866
:101640001A43FFF7DCFA09480268019B1A40FFF7CA
:10165000D6FA06480268019B1A43FFF7D0FA034BFB
:10166000186840220240FFF7C9FAC0461408004833
:1016700043088B421AD3002203098B4279D3030A11
:101680008B425ED3030B8B4242D3030C8B4227D396
:101690000902FF2212BA030C8B4202D31212090272
:1016A00003D0030B8B4233D31AE0D3E0411A8041BD
:1016B000401C704703460B4371D443088B42F5D35B
:1016C000002203098B4254D3030A8B4239D3030B04
:1016D0008B421DD3030C8B4202D394466EE0090A61
:1016E000C30B8B4201D3CB03C01A5241830B8B42F5
:1016F00001D38B03C01A5241430B8B4201D34B03DE
:10170000C01A5241030B8B4201D30B03C01A524142
:10171000C30A8B4201D3CB02C01A5241830A8B42C7
:1017200001D38B02C01A5241430A8B4201D34B02B0
:10173000C01A5241030A8B4201D30B02C01A524114
:10174000CDD2C3098B4201D3CB01C01A52418309C8
:101750008B4201D38B01C01A524143098B4201D302
:101760004B01C01A524103098B4201D30B01C01A2D
:101770005241C3088B4201D3CB00C01A52418308A7
:101780008B4201D38B00C01A524143088B4201D3D4
:101790004B00C01A5241411A524110007047CA0F03
:1017A00000D04942031000D34042534000229C46DF
:1017B00003098B422DD3030A8B4212D38901FC22E9
:1017C00012BA030A8B420CD3890192118B4208D3BF
:1017D000890192118B4204D3890137D0921100E024
:1017E0008909C3098B4201D3CB01C01A5241830935
:1017F0008B4201D38B01C01A524143098B4201D362
:101800004B01C01A524103098B4201D30B01C01A8C
:101810005241C3088B4201D3CB00C01A5241830806
:101820008B4201D38B00C01A5241D9D243088B425C
:1018300001D34B00C01A5241411A00D20146524115
:10184000104663465B1000D34042704763465B100E
:1018500000D3404201B50021004201D0C9430846EF
:10186000C046C04602BD00000000000000000102AA
:1018700003040607080902030405060708090A0B02
:101880000C0D0E0F10100102030405060708090ACB
:101890000B0C0D0E0F10596F757220555341525499
:1018A0003320697320776F726B696E6700746865A7
:1018B00072652077617320616E206572726F7200AD
:1018C000E018000800000020100000001C010008C3
:1018D000F018000810000020680600003C01000815
:1018E000010000000400000000127A000000000067
:04000005080000C12E
:00000001FF
